{
  "_format": "hh-sol-artifact-1",
  "contractName": "BinBins",
  "sourceName": "contracts/BinBins.sol",
  "abi": [
    {
      "inputs": [],
      "stateMutability": "nonpayable",
      "type": "constructor"
    },
    {
      "anonymous": false,
      "inputs": [
        {
          "indexed": true,
          "internalType": "address",
          "name": "walletAddress",
          "type": "address"
        },
        {
          "indexed": false,
          "internalType": "uint256",
          "name": "amount",
          "type": "uint256"
        }
      ],
      "name": "Balance",
      "type": "event"
    },
    {
      "anonymous": false,
      "inputs": [
        {
          "indexed": true,
          "internalType": "uint256",
          "name": "id",
          "type": "uint256"
        },
        {
          "indexed": false,
          "internalType": "string",
          "name": "name",
          "type": "string"
        },
        {
          "indexed": false,
          "internalType": "string",
          "name": "imgUrl",
          "type": "string"
        },
        {
          "indexed": false,
          "internalType": "uint256",
          "name": "rentFee",
          "type": "uint256"
        },
        {
          "indexed": false,
          "internalType": "uint256",
          "name": "saleFee",
          "type": "uint256"
        }
      ],
      "name": "BinBinAdded",
      "type": "event"
    },
    {
      "anonymous": false,
      "inputs": [
        {
          "indexed": true,
          "internalType": "uint256",
          "name": "id",
          "type": "uint256"
        },
        {
          "indexed": false,
          "internalType": "string",
          "name": "name",
          "type": "string"
        },
        {
          "indexed": false,
          "internalType": "string",
          "name": "imgUrl",
          "type": "string"
        },
        {
          "indexed": false,
          "internalType": "uint256",
          "name": "rentFee",
          "type": "uint256"
        },
        {
          "indexed": false,
          "internalType": "uint256",
          "name": "saleFee",
          "type": "uint256"
        }
      ],
      "name": "BinBinMetadataEdited",
      "type": "event"
    },
    {
      "anonymous": false,
      "inputs": [
        {
          "indexed": true,
          "internalType": "uint256",
          "name": "id",
          "type": "uint256"
        },
        {
          "indexed": false,
          "internalType": "enum BinBins.Status",
          "name": "status",
          "type": "uint8"
        }
      ],
      "name": "BinBinStatusEdited",
      "type": "event"
    },
    {
      "anonymous": false,
      "inputs": [
        {
          "indexed": true,
          "internalType": "address",
          "name": "walletAddress",
          "type": "address"
        },
        {
          "indexed": true,
          "internalType": "uint256",
          "name": "BinBinId",
          "type": "uint256"
        }
      ],
      "name": "CheckInEvent",
      "type": "event"
    },
    {
      "anonymous": false,
      "inputs": [
        {
          "indexed": true,
          "internalType": "address",
          "name": "walletAddress",
          "type": "address"
        },
        {
          "indexed": true,
          "internalType": "uint256",
          "name": "BinBinId",
          "type": "uint256"
        }
      ],
      "name": "Checkout",
      "type": "event"
    },
    {
      "anonymous": false,
      "inputs": [
        {
          "indexed": true,
          "internalType": "address",
          "name": "walletAddress",
          "type": "address"
        },
        {
          "indexed": false,
          "internalType": "uint256",
          "name": "amount",
          "type": "uint256"
        }
      ],
      "name": "Deposit",
      "type": "event"
    },
    {
      "anonymous": false,
      "inputs": [
        {
          "indexed": true,
          "internalType": "address",
          "name": "walletAddress",
          "type": "address"
        },
        {
          "indexed": false,
          "internalType": "uint256",
          "name": "amount",
          "type": "uint256"
        }
      ],
      "name": "PaymentMade",
      "type": "event"
    },
    {
      "anonymous": false,
      "inputs": [
        {
          "indexed": true,
          "internalType": "address",
          "name": "walletAddress",
          "type": "address"
        },
        {
          "indexed": false,
          "internalType": "string",
          "name": "name",
          "type": "string"
        },
        {
          "indexed": false,
          "internalType": "string",
          "name": "lastname",
          "type": "string"
        }
      ],
      "name": "UserAdded",
      "type": "event"
    },
    {
      "inputs": [],
      "name": "CheckIn",
      "outputs": [],
      "stateMutability": "nonpayable",
      "type": "function"
    },
    {
      "inputs": [
        {
          "internalType": "string",
          "name": "name",
          "type": "string"
        },
        {
          "internalType": "string",
          "name": "url",
          "type": "string"
        },
        {
          "internalType": "uint256",
          "name": "rent",
          "type": "uint256"
        },
        {
          "internalType": "uint256",
          "name": "sale",
          "type": "uint256"
        }
      ],
      "name": "addBinBin",
      "outputs": [],
      "stateMutability": "nonpayable",
      "type": "function"
    },
    {
      "inputs": [
        {
          "internalType": "string",
          "name": "name",
          "type": "string"
        },
        {
          "internalType": "string",
          "name": "_lastName",
          "type": "string"
        }
      ],
      "name": "addUser",
      "outputs": [],
      "stateMutability": "nonpayable",
      "type": "function"
    },
    {
      "inputs": [
        {
          "internalType": "uint256",
          "name": "id",
          "type": "uint256"
        }
      ],
      "name": "checkOut",
      "outputs": [],
      "stateMutability": "nonpayable",
      "type": "function"
    },
    {
      "inputs": [],
      "name": "deposit",
      "outputs": [],
      "stateMutability": "payable",
      "type": "function"
    },
    {
      "inputs": [
        {
          "internalType": "uint256",
          "name": "id",
          "type": "uint256"
        },
        {
          "internalType": "string",
          "name": "name",
          "type": "string"
        },
        {
          "internalType": "string",
          "name": "imgUrl",
          "type": "string"
        },
        {
          "internalType": "uint256",
          "name": "rentFee",
          "type": "uint256"
        },
        {
          "internalType": "uint256",
          "name": "saleFee",
          "type": "uint256"
        }
      ],
      "name": "editBinBinMetadata",
      "outputs": [],
      "stateMutability": "nonpayable",
      "type": "function"
    },
    {
      "inputs": [
        {
          "internalType": "uint256",
          "name": "id",
          "type": "uint256"
        },
        {
          "internalType": "enum BinBins.Status",
          "name": "status",
          "type": "uint8"
        }
      ],
      "name": "editBinBinStatus",
      "outputs": [],
      "stateMutability": "nonpayable",
      "type": "function"
    },
    {
      "inputs": [],
      "name": "getBalance",
      "outputs": [
        {
          "internalType": "uint256",
          "name": "",
          "type": "uint256"
        }
      ],
      "stateMutability": "view",
      "type": "function"
    },
    {
      "inputs": [
        {
          "internalType": "uint256",
          "name": "id",
          "type": "uint256"
        }
      ],
      "name": "getBinBin",
      "outputs": [
        {
          "components": [
            {
              "internalType": "uint256",
              "name": "id",
              "type": "uint256"
            },
            {
              "internalType": "string",
              "name": "name",
              "type": "string"
            },
            {
              "internalType": "string",
              "name": "imgUrl",
              "type": "string"
            },
            {
              "internalType": "enum BinBins.Status",
              "name": "status",
              "type": "uint8"
            },
            {
              "internalType": "uint256",
              "name": "rentFee",
              "type": "uint256"
            },
            {
              "internalType": "uint256",
              "name": "saleFee",
              "type": "uint256"
            }
          ],
          "internalType": "struct BinBins.BinBin",
          "name": "",
          "type": "tuple"
        }
      ],
      "stateMutability": "view",
      "type": "function"
    },
    {
      "inputs": [
        {
          "internalType": "enum BinBins.Status",
          "name": "_status",
          "type": "uint8"
        }
      ],
      "name": "getBinBinByStatus",
      "outputs": [
        {
          "components": [
            {
              "internalType": "uint256",
              "name": "id",
              "type": "uint256"
            },
            {
              "internalType": "string",
              "name": "name",
              "type": "string"
            },
            {
              "internalType": "string",
              "name": "imgUrl",
              "type": "string"
            },
            {
              "internalType": "enum BinBins.Status",
              "name": "status",
              "type": "uint8"
            },
            {
              "internalType": "uint256",
              "name": "rentFee",
              "type": "uint256"
            },
            {
              "internalType": "uint256",
              "name": "saleFee",
              "type": "uint256"
            }
          ],
          "internalType": "struct BinBins.BinBin[]",
          "name": "",
          "type": "tuple[]"
        }
      ],
      "stateMutability": "view",
      "type": "function"
    },
    {
      "inputs": [],
      "name": "getCurrentCount",
      "outputs": [
        {
          "internalType": "uint256",
          "name": "",
          "type": "uint256"
        }
      ],
      "stateMutability": "view",
      "type": "function"
    },
    {
      "inputs": [],
      "name": "getOwner",
      "outputs": [
        {
          "internalType": "address",
          "name": "",
          "type": "address"
        }
      ],
      "stateMutability": "view",
      "type": "function"
    },
    {
      "inputs": [],
      "name": "getTotalPayments",
      "outputs": [
        {
          "internalType": "uint256",
          "name": "",
          "type": "uint256"
        }
      ],
      "stateMutability": "view",
      "type": "function"
    },
    {
      "inputs": [
        {
          "internalType": "address",
          "name": "walletAddress",
          "type": "address"
        }
      ],
      "name": "getUser",
      "outputs": [
        {
          "components": [
            {
              "internalType": "address",
              "name": "walletAddress",
              "type": "address"
            },
            {
              "internalType": "string",
              "name": "name",
              "type": "string"
            },
            {
              "internalType": "string",
              "name": "lastname",
              "type": "string"
            },
            {
              "internalType": "uint256",
              "name": "rentedBinBinId",
              "type": "uint256"
            },
            {
              "internalType": "uint256",
              "name": "balance",
              "type": "uint256"
            },
            {
              "internalType": "uint256",
              "name": "debt",
              "type": "uint256"
            },
            {
              "internalType": "uint256",
              "name": "start",
              "type": "uint256"
            }
          ],
          "internalType": "struct BinBins.User",
          "name": "",
          "type": "tuple"
        }
      ],
      "stateMutability": "view",
      "type": "function"
    },
    {
      "inputs": [],
      "name": "makePayment",
      "outputs": [],
      "stateMutability": "payable",
      "type": "function"
    },
    {
      "inputs": [
        {
          "internalType": "address",
          "name": "_newOwner",
          "type": "address"
        }
      ],
      "name": "setOwner",
      "outputs": [],
      "stateMutability": "nonpayable",
      "type": "function"
    },
    {
      "inputs": [
        {
          "internalType": "uint256",
          "name": "amount",
          "type": "uint256"
        }
      ],
      "name": "withdrawBalance",
      "outputs": [],
      "stateMutability": "nonpayable",
      "type": "function"
    },
    {
      "inputs": [
        {
          "internalType": "uint256",
          "name": "amount",
          "type": "uint256"
        }
      ],
      "name": "withdrawOwnerBalance",
      "outputs": [],
      "stateMutability": "nonpayable",
      "type": "function"
    }
  ],
  "bytecode": "0x608060405234801561001057600080fd5b5060016000908155600280546001600160a01b031916331790556003556121158061003c6000396000f3fe6080604052600436106101095760003560e01c8063708f29a611610095578063d8d7970011610064578063d8d79700146102b1578063da76d5cd146102b9578063dd51babf146102d9578063e79da7ba146102ee578063edeeb32a1461030357600080fd5b8063708f29a61461023f578063893d20e814610254578063a6f43d541461027c578063d0e30db0146102a957600080fd5b806320c7baae116100dc57806320c7baae146101925780633c69c657146101b25780634ccab7f2146101d25780636f77926b146101f25780636f85bcb01461021f57600080fd5b8063079eaf341461010e57806312065fe01461013057806313af4035146101525780631bd2eeee14610172575b600080fd5b34801561011a57600080fd5b5061012e610129366004611a3d565b610330565b005b34801561013c57600080fd5b50475b6040519081526020015b60405180910390f35b34801561015e57600080fd5b5061012e61016d366004611aa9565b6104fa565b34801561017e57600080fd5b5061012e61018d366004611ad9565b610546565b34801561019e57600080fd5b5061012e6101ad366004611af2565b6106f3565b3480156101be57600080fd5b5061012e6101cd366004611ad9565b61081b565b3480156101de57600080fd5b5061012e6101ed366004611b8f565b610940565b3480156101fe57600080fd5b5061021261020d366004611aa9565b610a2b565b6040516101499190611c08565b34801561022b57600080fd5b5061012e61023a366004611c89565b610c1f565b34801561024b57600080fd5b5061013f610de6565b34801561026057600080fd5b506002546040516001600160a01b039091168152602001610149565b34801561028857600080fd5b5061029c610297366004611ad9565b610e1a565b6040516101499190611dab565b61012e61100c565b61012e6110df565b3480156102c557600080fd5b5061012e6102d4366004611ad9565b61122f565b3480156102e557600080fd5b5061013f6113a3565b3480156102fa57600080fd5b5061012e6113b3565b34801561030f57600080fd5b5061032361031e366004611dbe565b61150c565b6040516101499190611dd9565b61033933611802565b156103815760405162461bcd60e51b81526020600482015260136024820152725573657220616c72656164792065786973747360681b60448201526064015b60405180910390fd5b6040518060e00160405280336001600160a01b0316815260200185858080601f016020809104026020016040519081016040528093929190818152602001838380828437600092019190915250505090825250604080516020601f86018190048102820181019092528481529181019190859085908190840183828082843760009201829052509385525050506020808301829052604080840183905260608401839052608090930182905233825260048152919020825181546001600160a01b0319166001600160a01b03909116178155828201518051919261046d926001850192909101906118a0565b50604082015180516104899160028401916020909101906118a0565b50606082015160038201556080820151600482015560a0820151600582015560c09091015160069091015560405133907f8eab1db142a914aff8b515eedb9177bd7effaef6d714c41e30bdf15206778607906104ec908790879087908790611e64565b60405180910390a250505050565b6002546001600160a01b031633146105245760405162461bcd60e51b815260040161037890611e96565b600280546001600160a01b0319166001600160a01b0392909216919091179055565b61054f33611802565b61056b5760405162461bcd60e51b815260040161037890611ec4565b600260008281526005602052604090206003015460ff16600281111561059357610593611d07565b146105e05760405162461bcd60e51b815260206004820152601760248201527f42696e42696e206973206e6f7420617661696c61626c650000000000000000006044820152606401610378565b33600090815260046020526040902060030154156106405760405162461bcd60e51b815260206004820181905260248201527f5573657220616c72656164792068617320612062696e62696e2072656e7465646044820152606401610378565b33600090815260046020526040902060050154156106905760405162461bcd60e51b815260206004820152600d60248201526c155cd95c881a185cc81919589d609a1b6044820152606401610378565b33600081815260046020908152604080832042600682015560039081018690558584526005909252808320909101805460ff19166001179055518392917f10190e7f174afbe5482194d509017e9df854671cd62fb4ef901fbd0080c1e6b691a350565b6002546001600160a01b0316331461071d5760405162461bcd60e51b815260040161037890611e96565b60008781526005602052604090205461076f5760405162461bcd60e51b8152602060048201526014602482015273109a5b909a5b88191bd95cdb89dd08195e1a5cdd60621b6044820152606401610378565b6000878152600560205260409020851561079357610791600182018888611924565b505b83156107a9576107a7600282018686611924565b505b82156107b757600481018390555b81156107c557600581018290555b877fa938cd4521d3281724e1b0c8f320d2cd59b29254359a60a096512b69d847907b8260010183600201846004015485600501546040516108099493929190611fcb565b60405180910390a25050505050505050565b6002546001600160a01b031633146108455760405162461bcd60e51b815260040161037890611e96565b61084d611822565b806003541161089e5760405162461bcd60e51b815260206004820152601d60248201527f596f7520646f6e2774206861766520656e6f7567682062616c616e63650000006044820152606401610378565b604051600090339083908381818185875af1925050503d80600081146108e0576040519150601f19603f3d011682016040523d82523d6000602084013e6108e5565b606091505b50509050806109295760405162461bcd60e51b815260206004820152601060248201526f2a3930b739b332b9103330b4b632b21760811b6044820152606401610378565b5060038054829003905561093d6001600055565b50565b6002546001600160a01b0316331461096a5760405162461bcd60e51b815260040161037890611e96565b6000828152600560205260409020546109bc5760405162461bcd60e51b8152602060048201526014602482015273109a5b909a5b88191bd95cdb89dd08195e1a5cdd60621b6044820152606401610378565b6000828152600560205260409020600301805482919060ff191660018360028111156109ea576109ea611d07565b0217905550817fe8ac00e0adb776effc3eecbc889788c696282aaa9e581d4bdff8555f13db447382604051610a1f9190612004565b60405180910390a25050565b610a746040518060e0016040528060006001600160a01b031681526020016060815260200160608152602001600081526020016000815260200160008152602001600081525090565b610a7d82611802565b610a995760405162461bcd60e51b815260040161037890611ec4565b6001600160a01b03808316600090815260046020908152604091829020825160e081019093528054909316825260018301805492939291840191610adc90611ef0565b80601f0160208091040260200160405190810160405280929190818152602001828054610b0890611ef0565b8015610b555780601f10610b2a57610100808354040283529160200191610b55565b820191906000526020600020905b815481529060010190602001808311610b3857829003601f168201915b50505050508152602001600282018054610b6e90611ef0565b80601f0160208091040260200160405190810160405280929190818152602001828054610b9a90611ef0565b8015610be75780601f10610bbc57610100808354040283529160200191610be7565b820191906000526020600020905b815481529060010190602001808311610bca57829003601f168201915b505050505081526020016003820154815260200160048201548152602001600582015481526020016006820154815250509050919050565b6002546001600160a01b03163314610c495760405162461bcd60e51b815260040161037890611e96565b610c57600180546001019055565b6000610c6260015490565b90506040518060c0016040528082815260200188888080601f016020809104026020016040519081016040528093929190818152602001838380828437600092019190915250505090825250604080516020601f890181900481028201810190925287815291810191908890889081908401838280828437600092019190915250505090825250602001600281526020808201869052604091820185905260008481526005825291909120825181558282015180519192610d2b926001850192909101906118a0565b5060408201518051610d479160028401916020909101906118a0565b50606082015160038201805460ff19166001836002811115610d6b57610d6b611d07565b02179055506080820151600482015560a0909101516005918201556000828152602091909152604090819020905182917fcf5c5101ece558da9a423dc7e124fff73645164f6b26fa4778e554bcaa6eb60091610dd591600181019160029091019088908890611fcb565b60405180910390a250505050505050565b6002546000906001600160a01b03163314610e135760405162461bcd60e51b815260040161037890611e96565b5060035490565b610e22611998565b600082815260056020526040902054610e735760405162461bcd60e51b8152602060048201526013602482015272109a5b909a5b991bd95cdb89dd08195e1a5cdd606a1b6044820152606401610378565b600560008381526020019081526020016000206040518060c001604052908160008201548152602001600182018054610eab90611ef0565b80601f0160208091040260200160405190810160405280929190818152602001828054610ed790611ef0565b8015610f245780601f10610ef957610100808354040283529160200191610f24565b820191906000526020600020905b815481529060010190602001808311610f0757829003601f168201915b50505050508152602001600282018054610f3d90611ef0565b80601f0160208091040260200160405190810160405280929190818152602001828054610f6990611ef0565b8015610fb65780601f10610f8b57610100808354040283529160200191610fb6565b820191906000526020600020905b815481529060010190602001808311610f9957829003601f168201915b5050509183525050600382015460209091019060ff166002811115610fdd57610fdd611d07565b6002811115610fee57610fee611d07565b81526004820154602082015260059091015460409091015292915050565b61101533611802565b6110315760405162461bcd60e51b815260040161037890611ec4565b600034116110815760405162461bcd60e51b815260206004820152601c60248201527f596f75206d7573742073656e642067726561746572207468616e2030000000006044820152606401610378565b33600090815260046020819052604082200180543492906110a3908490612028565b909155505060405134815233907fe1fffcc4923d04b559f4d29a8bfc6cda04eb5b0d3c460751c2402c5c5cc9109c9060200160405180910390a2565b6110e833611802565b6111045760405162461bcd60e51b815260040161037890611ec4565b3360009081526004602081905260409091206005810154910154816111645760405162461bcd60e51b8152602060048201526016602482015275155cd95c88191bd95cdb89dd081a185d99481919589d60521b6044820152606401610378565b818110156111b45760405162461bcd60e51b815260206004820181905260248201527f5573657220646f65736e2774206861766520656e6f7567682062616c616e63656044820152606401610378565b3360009081526004602052604081206005018054349081900390915560038054919290916111e3908490612028565b90915550503360008181526004602052604080822060050191909155517f3a2d0e41c506b136330c6e5e0295ccbf0966daece99bfe7c89020cc01dbfb8d690610a1f9085815260200190565b611237611822565b61124033611802565b61125c5760405162461bcd60e51b815260040161037890611ec4565b33600090815260046020819052604090912001548181116112bf5760405162461bcd60e51b815260206004820152601d60248201527f596f7520646f6e2774206861766520656e6f7567682062616c616e63650000006044820152606401610378565b336000818152600460208190526040808320909101805486900390555190919084908381818185875af1925050503d8060008114611319576040519150601f19603f3d011682016040523d82523d6000602084013e61131e565b606091505b50509050806113625760405162461bcd60e51b815260206004820152601060248201526f2a3930b739b332b9103330b4b632b21760811b6044820152606401610378565b60405182815233907f134e340554ff8a7d64280a2a28b982df554e2595e5bf45cd39368f31099172a69060200160405180910390a2505061093d6001600055565b60006113ae60015490565b905090565b6113bc33611802565b6113d85760405162461bcd60e51b815260040161037890611ec4565b33600090815260046020526040902060030154806114425760405162461bcd60e51b815260206004820152602160248201527f5573657220646f65736e2774206861766520612062696e62696e2072656e74656044820152601960fa1b6064820152608401610378565b3360009081526004602052604081206006015461145f9042612040565b60008381526005602052604090206004015490915061147e828261187c565b33600090815260046020526040812060050180549091906114a0908490612028565b9091555050336000818152600460209081526040808320600380820185905560069091018490558784526005909252808320909101805460ff19166002179055518592917fa6a1daf8de816aba3b1ca455a4fd97cd44d0284c1777877bffdbd7304402955191a3505050565b606060008061151a60015490565b905060015b8181116115845784600281111561153857611538611d07565b60008281526005602052604090206003015460ff16600281111561155e5761155e611d07565b1415611572578261156e81612057565b9350505b8061157c81612057565b91505061151f565b5060008267ffffffffffffffff8111156115a0576115a0612072565b6040519080825280602002602001820160405280156115d957816020015b6115c6611998565b8152602001906001900390816115be5790505b5060009350905060015b8281116117f9578560028111156115fc576115fc611d07565b60008281526005602052604090206003015460ff16600281111561162257611622611d07565b14156117e757600560008281526020019081526020016000206040518060c00160405290816000820154815260200160018201805461166090611ef0565b80601f016020809104026020016040519081016040528092919081815260200182805461168c90611ef0565b80156116d95780601f106116ae576101008083540402835291602001916116d9565b820191906000526020600020905b8154815290600101906020018083116116bc57829003601f168201915b505050505081526020016002820180546116f290611ef0565b80601f016020809104026020016040519081016040528092919081815260200182805461171e90611ef0565b801561176b5780601f106117405761010080835404028352916020019161176b565b820191906000526020600020905b81548152906001019060200180831161174e57829003601f168201915b5050509183525050600382015460209091019060ff16600281111561179257611792611d07565b60028111156117a3576117a3611d07565b8152602001600482015481526020016005820154815250508285815181106117cd576117cd612088565b602002602001018190525083806117e390612057565b9450505b806117f181612057565b9150506115e3565b50949350505050565b6001600160a01b0390811660009081526004602052604090205416151590565b600260005414156118755760405162461bcd60e51b815260206004820152601f60248201527f5265656e7472616e637947756172643a207265656e7472616e742063616c6c006044820152606401610378565b6002600055565b60008061188a603c8561209e565b905061189683826120c0565b9150505b92915050565b8280546118ac90611ef0565b90600052602060002090601f0160209004810192826118ce5760008555611914565b82601f106118e757805160ff1916838001178555611914565b82800160010185558215611914579182015b828111156119145782518255916020019190600101906118f9565b506119209291506119df565b5090565b82805461193090611ef0565b90600052602060002090601f0160209004810192826119525760008555611914565b82601f1061196b5782800160ff19823516178555611914565b82800160010185558215611914579182015b8281111561191457823582559160200191906001019061197d565b6040518060c00160405280600081526020016060815260200160608152602001600060028111156119cb576119cb611d07565b815260200160008152602001600081525090565b5b8082111561192057600081556001016119e0565b60008083601f840112611a0657600080fd5b50813567ffffffffffffffff811115611a1e57600080fd5b602083019150836020828501011115611a3657600080fd5b9250929050565b60008060008060408587031215611a5357600080fd5b843567ffffffffffffffff80821115611a6b57600080fd5b611a77888389016119f4565b90965094506020870135915080821115611a9057600080fd5b50611a9d878288016119f4565b95989497509550505050565b600060208284031215611abb57600080fd5b81356001600160a01b0381168114611ad257600080fd5b9392505050565b600060208284031215611aeb57600080fd5b5035919050565b600080600080600080600060a0888a031215611b0d57600080fd5b87359650602088013567ffffffffffffffff80821115611b2c57600080fd5b611b388b838c016119f4565b909850965060408a0135915080821115611b5157600080fd5b50611b5e8a828b016119f4565b989b979a5095989597966060870135966080013595509350505050565b803560038110611b8a57600080fd5b919050565b60008060408385031215611ba257600080fd5b82359150611bb260208401611b7b565b90509250929050565b6000815180845260005b81811015611be157602081850181015186830182015201611bc5565b81811115611bf3576000602083870101525b50601f01601f19169290920160200192915050565b602080825282516001600160a01b03168282015282015160e06040830152600090611c37610100840182611bbb565b90506040840151601f19848303016060850152611c548282611bbb565b91505060608401516080840152608084015160a084015260a084015160c084015260c084015160e08401528091505092915050565b60008060008060008060808789031215611ca257600080fd5b863567ffffffffffffffff80821115611cba57600080fd5b611cc68a838b016119f4565b90985096506020890135915080821115611cdf57600080fd5b50611cec89828a016119f4565b979a9699509760408101359660609091013595509350505050565b634e487b7160e01b600052602160045260246000fd5b60038110611d3b57634e487b7160e01b600052602160045260246000fd5b9052565b805182526000602082015160c06020850152611d5e60c0850182611bbb565b905060408301518482036040860152611d778282611bbb565b9150506060830151611d8c6060860182611d1d565b506080830151608085015260a083015160a08501528091505092915050565b602081526000611ad26020830184611d3f565b600060208284031215611dd057600080fd5b611ad282611b7b565b6000602080830181845280855180835260408601915060408160051b870101925083870160005b82811015611e2e57603f19888603018452611e1c858351611d3f565b94509285019290850190600101611e00565b5092979650505050505050565b81835281816020850137506000828201602090810191909152601f909101601f19169091010190565b604081526000611e78604083018688611e3b565b8281036020840152611e8b818587611e3b565b979650505050505050565b6020808252601490820152732cb7ba93b932903737ba103a34329037bbb732b960611b604082015260600190565b602080825260129082015271155cd95c88191bd95cdb89dd08195e1a5cdd60721b604082015260600190565b600181811c90821680611f0457607f821691505b60208210811415611f2557634e487b7160e01b600052602260045260246000fd5b50919050565b8054600090600181811c9080831680611f4557607f831692505b6020808410821415611f6757634e487b7160e01b600052602260045260246000fd5b83885260208801828015611f825760018114611f9357611fbe565b60ff19871682528282019750611fbe565b60008981526020902060005b87811015611fb857815484820152908601908401611f9f565b83019850505b5050505050505092915050565b608081526000611fde6080830187611f2b565b8281036020840152611ff08187611f2b565b604084019590955250506060015292915050565b6020810161189a8284611d1d565b634e487b7160e01b600052601160045260246000fd5b6000821982111561203b5761203b612012565b500190565b60008282101561205257612052612012565b500390565b600060001982141561206b5761206b612012565b5060010190565b634e487b7160e01b600052604160045260246000fd5b634e487b7160e01b600052603260045260246000fd5b6000826120bb57634e487b7160e01b600052601260045260246000fd5b500490565b60008160001904831182151516156120da576120da612012565b50029056fea2646970667358221220a3daac3dd71ba2ff4a6f7d4fc1158bab262a9680b131400850d923fd32a2016564736f6c63430008090033",
  "linkReferences": {},
  "deployedLinkReferences": {}
}